:020000040800F2
:10000000081A002059020008CB4600086141000888
:10001000C94600086D220008294E000800000000B3
:10002000000000000000000000000000C101000806
:10003000BF22000800000000050200084D4A000829
:1000400073020008730200087302000873020008BC
:1000500073020008730200087302000873020008AC
:10006000730200087302000873020008712200087E
:100070007D2200088922000873020008730200082C
:10008000730200087302000873020008730200087C
:10009000730200087302000873020008730200086C
:1000A000730200087302000873020008730200085C
:1000B0007302000873020008E14A00087302000896
:1000C000730200087302000873020008730200083C
:1000D000730200081D4E0008730200087302000836
:1000E0007302000873020008730200084B1C012B06
:1000F00098BF70472DE9F003911C9B08B1F804806C
:10010000B1F802900A8831F802CC8044814402445C
:100110008444D9F80070D8F800601568DCF8004015
:10012000C9F80060C8F80070CCF800501460D9F825
:100130000470D8F804605568DCF80440C9F804601D
:10014000C8F80470CCF80450546008315B1ED5D157
:10015000BDE8F00370474B1C012B98BF70472DE999
:10016000F003911C9B08B1F80480B1F802900A8852
:1001700031F802CC00EB580800EB590900EB5202B1
:1001800000EB5C0CD9F80070D8F800601568DCF85A
:100190000040C9F80060C8F80070CCF80050146046
:1001A00008315B1EDFD1BDE8F0037047DFF80CD0EB
:1001B00001F0A8FF0048004795570008081A0020E2
:1001C000224B19680868B0E8F00F80F30988BFF384
:1001D0006F8F4FF0000080F311884EF00D0E7047C6
:1001E0000000000006480068006880F3088862B6D6
:1001F00061B6BFF34F8FBFF36F8F00DF00BF00BF4B
:1002000008ED00E0EFF30980BFF36F8F0F4B1A6822
:1002100020E9F00F106008B54FF0500080F311880E
:10022000BFF34F8FBFF36F8F05F00AFC4FF0000054
:1002300080F31188BDE8084019680868B0E8F00F3D
:1002400080F30988BFF36F8F704700BF2400002040
:10025000EFF30580704700000648804706480047D6
:10026000FEE7FEE7FEE7FEE7FEE7FEE7FEE7FEE766
:10027000FEE7FEE7DF4A0008AD010008002A08BFDC
:1002800070472DE9F04715460E4604464FF000082A
:1002900054F8047B54F8040B014601F0A7FB814697
:1002A0003946084601F0A2FB494601F047FB3746B4
:1002B000361D10F1FF4F28BFC7F8008002D205F0AD
:1002C00089FB38606D1EE3D1BDE8F0872DE9F04F62
:1002D0000E4643690088D6E90017A0F101088DB0E9
:1002E000144603F10805084601F028FB814639460B
:1002F000084601F023FB07460146484601F01EFB75
:100300004FF0FF3101F0E2FB44F8040B3946484658
:1003100001F066FB4FF0FF3101F0D8FB06EBC80798
:1003200044F8040B16F10806D7E900A9D6E900B095
:10033000049055F8040B079055F8040B06905946A5
:10034000504601F04DFB01904846049901F0F6FA41
:1003500000900199079801F049FB099001990698CE
:1003600001F044FB01900099079801F03FFB0790D2
:100370000099069801F03AFB00905146584601F06A
:10038000DDFA099901F0DAFA009901F0D7FA4FF095
:10039000FF3101F09BFB44F8040B4946049801F03F
:1003A0001FFB019901F0CAFA079901F019FB4FF000
:1003B000FF3101F08BFB0836083F44F8040BB8F11D
:1003C0000108B1D10DB0BDE8F08F2DE9F04F88469E
:1003D0004169D8E90079008801F10805461E8FB00F
:1003E00014464946384601F0A9FA4FF0FF3101F0B2
:1003F0006DFB44F8040B4946384601F0F1FA4FF022
:10040000FF3101F063FB08EBC60744F8040B08F169
:100410000808002E04BF0FB0BDE8F08F7868079081
:10042000D7F800B0D8F800000190D8F80400009088
:1004300055F804AB594655F8049B019801F0D0FAE1
:1004400003900799009801F079FA029050460399B9
:1004500001F0CCFA0B904846029901F0C7FA0A90D5
:100460004846039901F0C2FA03905046029901F000
:10047000BDFA81465946019801F060FA0B9901F0E6
:10048000AFFA0A9901F0ACFA4FF0FF3101F01EFB10
:1004900044F8040B0799009801F0A2FA039901F0BF
:1004A0004DFA494601F09CFA4FF0FF3101F00EFB86
:1004B00044F8040B761EA7F1080708F10808ADD12F
:1004C0000FB0BDE8F08F2DE9F0410446008A1D0011
:1004D0004FEA500016460F4620800AD02046FFF70C
:1004E00074FF2A4631462046BDE8F041012300F062
:1004F00021BD01232A46204600F01CFD3246394624
:100500002046BDE8F041E1E64A080023028001826E
:10051000B2F5807F31D008DC102A4FD0202A45D098
:10052000402A3BD0802A31D008E0B2F5007F1BD0B2
:10053000B2F5806F0FD0B2F5006F03D04FF0FF33EC
:10054000184670474FF46E628281214A8260214AC8
:100550002149426039E04FF4E16282811F4A8260A2
:100560001F4A2049426030E04FF4E07282811E4A07
:1005700082601E4A1E49426027E04FF4DC7282818D
:100580001C4A82601C4A1D4942601EE0D0228281C2
:100590001B4A82601B4A1C49426016E03822828155
:1005A0001A4A82601A4A1B4942600EE03022828158
:1005B000194A8260194A1A49426006E0142282816F
:1005C000184A8260184A194942604161B8E7000040
:1005D00028FC000890A400086859010818EE0008DB
:1005E000908400086839010898EA000890740008AF
:1005F0006829010828E70008906C000868210108B4
:1006000088E5000890680008681D010818E50008E2
:1006100090660008681B0108B8E4000890650008AF
:10062000681A010890E4000810650008E81901083C
:100630002DE9F34F9BB00C461B98008801EB800519
:100640001B99400804EB8006D1F804800590CDE9A1
:100650000B5405EB80075FEA900900F004812368E2
:10066000029362681792A2681A92E268159229684A
:100670000E9168680690A8681290E868119030683A
:10068000189072680792B2681692F2680392D7E9DE
:1006900000A01390B86810901846D7F80CB001F07D
:1006A0004DF944F8040B0699179801F047F944F8FE
:1006B000040B12991A9801F041F944F8040B1199AE
:1006C000159801F03BF944F8040B0E99029801F0DB
:1006D00087F90E900699179801F082F90690129901
:1006E0001A9801F07DF912901199159801F078F996
:1006F00011905146189801F021F946F8040B13990E
:10070000079801F01BF946F8040B1099169801F0B0
:1007100015F946F8040B5946039801F00FF946F80D
:10072000040B5046189901F05BF91490079913983F
:1007300001F056F913901699109801F051F91090A4
:100740005846039901F04CF9824658F8040B019081
:1007500058F804BB01990E9801F048F903905946E6
:10076000069801F043F902900199069801F03EF9CC
:10077000069059460E9801F039F90790DDE902100C
:1007800001F0DCF845F8040BDDE9060101F028F979
:1007900045F8040B5946149801F028F90390019983
:1007A000139801F023F902905946139801F01EF9AD
:1007B00006900199149801F019F98346DDE90210B9
:1007C00001F00EF947F8040B5946069801F0B6F807
:1007D00047F8040B58F8040B019058F804BB019932
:1007E000129801F003F903905946119801F0FEF8B0
:1007F00002900199119801F0F9F806905946129863
:1008000001F0F4F80790DDE9021001F097F845F8DF
:10081000040BDDE9060101F0E3F845F8040B594645
:10082000109801F0E3F803905046019901F0DEF8CA
:1008300002905046594601F0D9F883460199109824
:1008400001F0D4F88246DDE9021001F0C9F847F85A
:10085000040B5146584601F071F847F8040BB9F102
:1008600001097FF4FCAE1B980223059942680C989D
:1008700000F0F8FB1B980599022342680B981DB005
:10088000BDE8F04F00F0EEBB2DE9F34FA7B00F46E7
:1008900027980088400801EB800404EB800606EBF3
:1008A000800518961A95CDE91D412799A5F1040AEE
:1008B0000AEB80094968400806900A9104201990C3
:1008C00006200E910D911590306801903868A4F1C2
:1008D000040BA6F104080090019901F02FF8029092
:1008E000DDE9000101F07CF80390706805907868FC
:1008F0000190059901F022F800900599019801F006
:100900006FF80190606810900146039801F016F8A6
:1009100069680C9101F064F8169020680F90014608
:10092000019801F05DF82968059101F007F8119030
:100930000F99029801F054F8059901F051F81490BC
:100940001099009801F04CF80C9901F049F80B90BF
:100950001099039801F044F80C9900F0EFFF0C9007
:100960000F99019800F0EAFF059901F039F812900B
:100970000F99029800F0E2FF059900F0DFFF47F8B9
:10098000040B6168009800F0D9FF696800F0D6FF99
:1009900047F8040B169844F8040B119844F8040B1C
:1009A000149846F8040B0B9846F8040B0C9845F87D
:1009B000040B129845F8040B0A9901F108000D99EF
:1009C0000A9001F110000E990D9001F118000E909F
:1009D0000698801E4008209000F0C6813068019083
:1009E00038680090019900F0A9FF0290DDE900014C
:1009F00000F0F6FF03907068059078680190059903
:100A000000F09CFF00900599019800F0E9FF01902B
:100A100060680C900146039800F090FF696810919F
:100A200000F0DEFF169020680F900146019800F05C
:100A3000D7FF2968059100F081FF11900F99029866
:100A400000F0CEFF059900F0CBFF14900C990098B0
:100A500000F0C6FF109900F0C3FF0B900C990398AB
:100A600000F0BEFF109900F069FF0C900F990198FB
:100A700000F064FF059900F0B3FF12900F990298FF
:100A800000F05CFF059900F059FF47F8040B61681E
:100A9000009800F053FF696800F050FF47F8040B1E
:100AA0005AF8040C02905BF8040C0190029900F0D3
:100AB00045FF0090DDE9010100F092FF0190DAF8B6
:100AC00000000590DBF800000390059900F036FF68
:100AD00002900599039800F083FF10900390D9F8D5
:100AE00000000590D8F800001390059900F078FFF9
:100AF0002290019900F022FF269058F8041C1098CB
:100B0000109100F06DFF59F8041C0F9100F016FFD2
:100B100023901099009800F063FF0F9900F060FF98
:100B200024901399029800F05BFF059900F058FF9C
:100B300021900199229800F053FF2290DDE90F01E6
:100B400000F04EFF039900F04BFF179013990298A5
:100B500000F0F4FE059900F0F1FECBF80000ABF1D7
:100B600004011F9158F8041C009800F0E7FE59F8A2
:100B7000041C00F0E3FE1F99ABF1080B08600A9813
:100B8000006801900A984168009108300A90019924
:100B9000169800F02BFF10900099119800F026FF96
:100BA0000F900199119800F021FF03900099169879
:100BB00000F01CFF0290DDE90F1000F0BFFE44F8CA
:100BC000040BDDE9021000F00BFF44F8040B009960
:100BD000239800F00BFF10900199269800F006FF73
:100BE0000F900099269800F001FF03900199239837
:100BF00000F0FCFE0290DDE90F1000F0F1FEA8F11C
:100C00000401C8F800001C91DDE9021000F096FE16
:100C10001C99A8F1080808600D980D9900680190CA
:100C20000D9840680090199801EB80000D90019993
:100C3000149800F0DBFE109000990B9800F0D6FE9F
:100C40000F9001990B9800F0D1FE03900099149831
:100C500000F0CCFE0290DDE90F1000F06FFE46F8C8
:100C6000040BDDE9021000F0BBFE46F8040B2198EE
:100C7000019980F0004000F0B9FE1090009924988E
:100C800000F0B4FE0F900199249800F0AFFE03909D
:100C90000099219800F0AAFE0290DDE90F1000F003
:100CA0009FFEAAF10401CAF800000991DDE90201E2
:100CB00000F096FE0999AAF1080A08600E980068EB
:100CC00001900E981599406800900E9800EB8100F5
:100CD0000E9001990C9800F089FE109000991298DE
:100CE00000F084FE0F900199129800F07FFE0390AF
:100CF00000990C9800F07AFE0290DDE90F1000F0E8
:100D00001DFE45F8040BDDE9021000F069FE45F810
:100D1000040B0099179800F069FE10900199229831
:100D200000F064FE0F900099229800F05FFE03909F
:100D30000199179800F05AFE0290DDE90F1000F0BB
:100D40004FFEA9F10401C9F800001B91DDE9021072
:100D500000F0F4FD1B99A9F1080908602098401ED5
:100D600020907FF43BAE00BFD6F80080D7F800900B
:100D70004146484600F0E2FD02904146484600F0F8
:100D80002FFE0390D6F80490D7F8048049464046D9
:100D900000F0D4FD00904946404600F021FE01904D
:100DA00060680F900146039800F0C8FDD5F80490E4
:100DB000494600F015FE83462068099001460198D7
:100DC00000F00EFE2968059100F0B8FD82460999F1
:100DD000029800F005FE059900F002FE80460F998A
:100DE000009800F0FDFD494600F0FAFD0B900F99C8
:100DF000039800F0F5FD494600F0A0FD0C9009991C
:100E0000019800F09BFD059900F0EAFD81460999E3
:100E1000029800F093FD059900F090FD386061683C
:100E2000009800F08BFD696800F088FD78600A98F2
:100E3000D0E9007000905846394600F0D7FD109078
:100E40005046009900F0D2FD0F905046394600F010
:100E5000CDFD07465846009900F0C8FD8246DDE901
:100E60000F1000F06BFD20605146384600F0B8FDD1
:100E700060600D98D0E900474046214600F0B6FD7D
:100E8000834639460B9800F0B1FD824621460B9807
:100E900000F0ACFD04464046394600F0A7FD074689
:100EA0005146584600F04AFD30603946204600F071
:100EB00097FD70600E98D0E9004621460C9800F02E
:100EC00095FD80464846314600F090FD074648466D
:100ED000214600F08BFD044631460C9800F086FD5B
:100EE00006463946404600F029FD28603146204636
:100EF00000F076FD686027980423069942681E98E2
:100F000000F0B0F827980423069942681D9800F075
:100F1000A9F82798042306994268189800F0A2F8C7
:100F200027980699042342681A9829B0BDE8F04F23
:100F300000F098B82DE9F0410588984617460C4610
:100F40000646012A18D1201DB5B1083815F0010F49
:100F500004D050F8081F81F00041016069080BD0EF
:100F600050F8082F491E82F0004240F8082B026812
:100F700082F000420260F3D1B5F5807F1BD008DC1F
:100F8000102D13D0202D16D0402D19D0802D0DD02E
:100F90001CE0B5F5007F13D0B5F5806F06D0B5F530
:100FA000006F08D0B5F5805F0AD00FE021463046CB
:100FB000FFF73EFB0AE021463046FFF765FC05E0FF
:100FC000294601232046726800F04CF8B8F1000F62
:100FD00004D0B1892046B268FFF788F8012F18BF06
:100FE000BDE8F081284600F00EFF01464FF07E502C
:100FF00000F02EFD0646002D08BFBDE8F081083C3C
:1010000015F0010F0CD03146A06800F0EFFCA06095
:10101000E068314680F0004000F0E8FCE060083411
:101020006D0808BFBDE8F0813146A06800F0DEFC25
:10103000A060E068314680F0004000F0D7FCE0603E
:101040003146206900F0D2FC20616069314680F0B1
:10105000004000F0CBFC606110346D1EE4D1BDE8AF
:10106000F08100002DE9FF4FB3B00446349D289570
:10107000ED08002606EB050A0AEB050909EB050851
:1010800008EB050B0BEB05004719229078192A9005
:1010900054F83B00039054F836000290039900F096
:1010A0004DFC0090DDE9020100F09AFC09902298C5
:1010B00054F83000039054F83A000290039900F07D
:1010C0003DFC0590DDE9020100F08AFC089054F82F
:1010D0003700039054F839000290039900F02EFC79
:1010E0001590DDE9020100F07BFC14902A9854F879
:1010F0003000049054F838000390049900F01EFC6E
:101100000290DDE9030100F06BFC13901599009843
:1011100000F066FC04901599009800F00FFC009018
:101120000299059800F05CFC15900299059800F072
:1011300005FC01460590009800F000FC44F83600DC
:101140000599009800F04CFC44F83B0004EBCB0000
:101150000D90406804EBC60B0390DBF8040002908E
:10116000039900F0EBFB0090DDE9020100F038FC90
:101170000690229804EBC00016904068039004EBA0
:10118000CA000E9040680290039900F0D7FB0590CA
:10119000DDE9020100F024FC079004EBC7001A907F
:1011A0004068039004EBC9001990406802900399CD
:1011B00000F0C4FB1090DDE9020100F011FC0F907B
:1011C0002A9804EBC00018904068039004EBC80014
:1011D000179040680B90039900F0B0FB02900399C0
:1011E0000B9800F0FDFB12901099009800F0F8FBAE
:1011F00003901099009800F0A1FB009002990598C7
:1012000000F0EEFB10900299059800F097FB014664
:101210000590009800F092FBCBF804000599009827
:1012200000F0DEFB01460D9841601099049800F033
:1012300085FB44F839001099049800F0D1FB44F87C
:1012400037001599039800F0CBFB014619984160CF
:101250001599039800F072FB01461A9841601399A2
:10126000089800F0BDFBFE4F394600F0BFFB8146F9
:101270001399089800F062FB394600F0B7FB08901C
:101280001299079800F0ACFB394600F0AFFB83469B
:101290001299079800F052FB394600F0A7FB07901F
:1012A0004946099800F09CFB04904946099800F0D3
:1012B00045FB09900899149800F092FB1390089947
:1012C000149800F03BFB14905946069800F088FBF8
:1012D00003905946069800F031FB069007990F9845
:1012E00000F07EFB814607990F9800F027FB8346AC
:1012F0000146099800F022FB44F83A005946099843
:1013000000F06EFB01462A9844F8301049460498D4
:1013100000F014FB0146229844F830104946049826
:1013200000F05EFB44F838001499069800F058FB72
:1013300001460E9841601499069800F0FFFA0146A4
:10134000189841601399039800F04AFB01461698DB
:1013500041601399039800F0F1FA01461798416033
:101360002898064434988642FFF484AE082D3CBF8A
:1013700037B0BDE8F08F00201D9001201B903699FA
:101380001D98359F08441D90DDF8748042001618A2
:1013900057F838700E97359F810001EB000C57F815
:1013A00032700C97359F0CEB0003184457F83670D9
:1013B0002097359F57F831701997359F57F83C7033
:1013C0000B97359F57F833702597359F57F8307036
:1013D0002997359F07EBC8077F681797359F07EB5D
:1013E000C20207EBC10152681A9207EBC60207EB73
:1013F000C00052681E924968189107EBCC011B9EF1
:101400004968279107EBC3014968239140681C9004
:10141000771907EB050808EB050909EB050A0AEB44
:10142000050B0BEB0500219028442A9054F83A0054
:10143000039054F836000290039900F07FFA009070
:10144000DDE9020100F0CCFA099054F83B0003906A
:1014500054F837000290039900F070FA0590DDE926
:10146000020100F0BDFA0890219854F83000039072
:1014700054F838000290039900F060FA1590DDE905
:10148000020100F0ADFA14902A9854F8300004904C
:1014900054F839000390049900F050FA0290DDE905
:1014A000030100F09DFA13901599009800F098FA46
:1014B00004901599009800F041FA0090029905985F
:1014C00000F08EFA15900299059800F037FA01465F
:1014D0000590009800F032FA44F83600059900981B
:1014E00000F07EFA059004EBCA002B904068039050
:1014F00004EBC600169040680090039900F01EFAB5
:1015000002900399009800F06BFA069004EBCB0070
:101510002D904068039004EBC7002C904068009029
:10152000039900F00BFA0D900399009800F058FA17
:101530000790219804EBC0002F904068039004EBC3
:10154000C8002E9040680090039900F0F7F91090C1
:101550000399009800F044FA0F902A9804EBC00019
:1015600030904068129004EBC900319040680390BD
:10157000129900F0E3F900901299039800F030FA04
:1015800012901099029800F02BFA0390109902988B
:1015900000F0D4F9029000990D9800F021FA109013
:1015A00000990D9800F0CAF90D901099049800F078
:1015B000C5F900901099049800F012FA04900D9962
:1015C000029800F0BBF90146169841600D99029807
:1015D00000F006FA0D901599039800F001FA0290B8
:1015E0001599039800F0AAF903900599199800F04D
:1015F000FDF916900D99189800F0F8F915900D99CD
:10160000199800F0F3F90D900599189800F0EEF98B
:101610000590DDE9151000F091F944F83A000599BC
:101620000D9800F0DDF901462B98416000990C9867
:1016300000F0DCF9169002991A9800F0D7F982466A
:1016400002990C9800F0D2F90D9000991A9800F0C8
:10165000CDF905905146169800F070F902E00000AF
:10166000F304353F44F8380005990D9800F0B8F9B7
:1016700001462E9841600499259800F0B7F98246FA
:101680000399239800F0B2F980460399259800F059
:10169000ADF90D900499239800F0A8F90590414602
:1016A000504600F04BF90146219844F83010059956
:1016B0000D9800F095F901462F984160139908980C
:1016C00000F08EF9844900F091F98046139908984A
:1016D00000F034F9804900F089F9824612990798A0
:1016E00000F07EF97C4900F081F902901299079888
:1016F00000F024F9784900F079F9079041460998FB
:1017000000F06EF904904146099800F017F909902D
:101710005146149800F064F913905146149800F063
:101720000DF914900299069800F05AF90390029965
:10173000069800F003F9069007990F9800F050F909
:10174000824607990F9800F0F9F8804601460998FB
:1017500000F0F4F800904146099800F041F9099032
:101760005146049800F0EAF808905146049800F0B9
:1017700037F904901499069800F032F980461499CC
:10178000069800F0DBF806901399039800F028F90A
:1017900007901399039800F0D1F8039000990E98E0
:1017A00000F024F916904146179800F01FF9824680
:1017B00041460E9800F01AF90D900099179800F024
:1017C00015F980465146169800F0B8F844F83700ED
:1017D00041460D9800F004F901462C9841600999A2
:1017E000299800F003F9824606991C9800F0FEF84B
:1017F00080460699299800F0F9F80D9009991C98EF
:1018000000F0F4F807464146504600F097F80146CC
:101810002A9844F8301039460D9800F0E1F8014656
:101820003098416008990B9800F0E0F880460799DD
:10183000279800F0DBF8824607990B9800F0D6F85D
:101840000D900899279800F0D1F807465146404678
:1018500000F074F844F83B0039460D9800F0C0F8E9
:1018600001462D9841600499209800F0BFF8834606
:1018700003991E9800F0BAF882460399209800F068
:10188000B5F8804604991E9800F0B0F80746514616
:10189000584600F053F844F839003946404600F005
:1018A0009FF8014631984160289806443498864252
:1018B000FFF4AEAD1B98401C1B9085423FF65FAD18
:1018C00036984FF6FF7101EAC0003690072D3FF6BB
:1018D000CEAB37B0BDE8F08FF304353F202A04DBF0
:1018E000203A21FA02F00021704721FA02F3D04099
:1018F000C2F120029140084319467047D2B201E07C
:1019000000F8012B491EFBD270470022F6E710B504
:1019100013460A4604461946FFF7F0FF204610BD5D
:1019200010B5002200E0521C835C8C5CA34201D104
:10193000002BF8D1D8B2E1B2401A10BDF0B480EA61
:101940000102D40F4200B2EB410F02D20246084618
:1019500011464A0042D0C30DDDB2C1F3C752AD1AE1
:10196000202D35DAC1F3160141F4000204B15242D0
:10197000C5F1200602FA06F12A411044B3EBD05F0C
:1019800023D0C4B1012DA0EBC35009DCF0BC4FF053
:10199000004202EAC352DBB200F5000000F0DFBAF9
:1019A000400000F1807000EBC350A0F1807040EA6D
:1019B000D170490009E0490841EAC071A0EBC35069
:1019C00000F50000400800EBC350F0BC00F0BEBAC8
:1019D0006142012202EB4101001BF6E7F0BC7047B7
:1019E00081F00041AAE780F00040A7E780EA010209
:1019F00010B502F00043400022D04A001FD0010E73
:101A000001EB1261C0F35600C2F3560240F400002D
:101A100042F40002A0FB022000047F39140400D02D
:101A2000401C50EA124001D44000491EC2B20C06CC
:101A300004EBD010401C4008802A02D003E00020B4
:101A400010BD20F00100002900DA0020184310BD6D
:101A500030B480EA010202F0004530F0004221F08B
:101A6000004013D090B1C30DD40DC2F31601C0F3E2
:101A70001600E41A41F4000140F400027D34914262
:101A800001D3641C00E04900002C02DA30BC0020C5
:101A900070474FF400000023914201D3891A034399
:101AA00040084FEA4101F7D151B1914202D14FF0C4
:101AB000004105E002D24FF0010101E06FF00101A9
:101AC00003EBC450284430BC00F040BA420005D0BB
:101AD000C0F3C7525242914201DC0020704700EB34
:101AE000C15070472DE9FE4F804681EA0300C00FC8
:101AF0000C46009021F0004123F00045B8EB0200B5
:101B0000A94105D24046214690461C460B46024656
:101B100023F00040104347D0270DC7F30A00C3F35A
:101B20000A510290401A019040286BDAC3F3130067
:101B300040F4801B0098924620B10023D2EB030AA8
:101B400063EB0B0B01985946C0F14002504600F080
:101B5000DCF906460D4650465946019A00F0E4F974
:101B600010EB08006141002487EA115284EAE77310
:101B70001A4340D0009A62B3019A012A4FEA0752F1
:101B800015DC001B61EB02014FF0004202EA075234
:101B9000CDE90042001C41F5801132462B4600F091
:101BA0004AFA03B0BDE8F08F40462146F9E7001B32
:101BB00061EB0201001C41F5801300185B41201805
:101BC000A2F5001747EB030140EAD570B6196D4145
:101BD00011E06D084FEA360645EAC0754FEA075234
:101BE000001B61EB0201001C41F5801149084FEA1E
:101BF00030000019514132462B4603B0BDE8F04F8A
:101C000000F00ABA0098012240000023D0EB020243
:101C100063EBE073009821464FEAE074B8EB0000F4
:101C200061EB0401E9E783F000435BE781F00041E9
:101C300058E72DE9FE4F81EA030404F0004421F047
:101C4000004100944FF0000B23F0004350EA0104E0
:101C50005ED052EA03045BD0C3F30A54C1F30A55C1
:101C60002C44A4F2F3340194A0FB0254C1F31301F9
:101C700041F48011C3F3130343F4801301FB0244C6
:101C800000FB034E840A970A44EA815447EA8357CB
:101C9000A4FB076802958D0A05FB07854FEA932C84
:101CA00004FB0C542705029D4FEA065847EA1637F5
:101CB000B5EB08056EEB070C870E920E47EA81170D
:101CC00042EA8312A7FB0201B6EB0B0164EB0004AE
:101CD0002B0D43EA0C335E1844EB1C50DA46514698
:101CE000E7FB0201C5F313044FEA0B3343EA145335
:101CF0004FEA0432019C43EA0603A4F10C04029467
:101D0000009CCDE900B400F096F903B0BDE8F08F77
:101D100000200146F9E72DE9F04D81EA030404F0C3
:101D2000004B21F0004514464FF0000A23F000411B
:101D300050EA050220D054EA01021DD0C5F30A572B
:101D40000246C5F31303C1F31300C1F30A5640F46E
:101D5000801543F48013A7EB0608101BD64608F243
:101D6000FD3873EB050002D308F1010801E0921879
:101D70005B41B8F1000F03DA00200146BDE8F08DA9
:101D800000204FF48011064684460EE0171B73EBCB
:101D9000050705D3121B63EB050306434CEA010C50
:101DA00049084FEA300092185B4150EA0107EDD133
:101DB00052EA030012D082EA040083EA05010843D4
:101DC00005D0101BAB4106D20122002306E0002201
:101DD0004FF0004302E06FF0010253101AEB0600CF
:101DE0004CEB085110EB0A0041EB0B01BDE8F04D44
:101DF00000F012B9C10F80EAE0700844CA079623C8
:101E0000002100F0ACB896230022114600F0A7B8DC
:101E100000F0004230F000400AD0C10D01F56071C1
:101E2000C0F3160042EA0151C2084007114370474F
:101E3000002001467047000030B5041E71F1000417
:101E400004DB4FF00044404264EB0101141E73F1C7
:101E5000000405DB1C464FF00043524263EB0403D1
:101E6000994208BF904230BD002801DBC0F100401C
:101E7000002901DBC1F100418142704730B50B46BA
:101E8000014600202022012409E021FA02F59D42AA
:101E900005D303FA02F5491B04FA02F52844151E7E
:101EA000A2F10102F1DC30BD2DE9F05F0546002012
:101EB00092469B4688460646814640241BE02846BB
:101EC000414647462246FFF709FD53465A46C01A87
:101ED000914110D311461846224600F016F82D1AEB
:101EE00067EB01084F4622460120002100F00DF863
:101EF00017EB00094E41201EA4F10104DFDC484627
:101F000031462A464346BDE8F09F202A04DB203AAA
:101F100000FA02F1002070479140C2F1200320FA3C
:101F200003F3194390407047202A06DBCB17203A71
:101F300041FA02F043EAE07306E041FA02F3D040CE
:101F4000C2F1200291400843194670470029A8BFFA
:101F50007047401C490008BF20F00100704710B4D2
:101F6000B0FA80FC00FA0CF050EA010404BF10BC87
:101F7000704749B1CCF1200421FA04F411FA0CF1B4
:101F800018BF012121430843A3EB0C01CB1D4FEAED
:101F900000614FEA102042BF002010BC704700EBE8
:101FA000C35010440029A4BF10BC7047401C490016
:101FB00008BF20F0010010BC7047F0B4002802DC1C
:101FC000F0BC00207047C0F3C751C0F3160040F4C6
:101FD0000000CA0701D14000491E3F2202EB610503
:101FE000002211464FF4000626FA01F31344D418D8
:101FF000844201D8001B1A464000491C1729F3DD12
:102000005100814202D24FF0FF3100E0002102EB8B
:10201000C550F0BCFFF79ABF10B5141E73F1000451
:1020200008DA401C41F1000192185B411A4301D1CA
:1020300020F0010010BD2DE9F04D92469B4611B1F4
:10204000B1FA81F202E0B0FA80F220329046FFF756
:102050005CFF04460F4640EA0A0041EA0B01534682
:102060005A46084313D0114653EA010019D0C8F16B
:1020700040025046FFF732FC05460E465046594690
:102080004246FFF742FF084305D0012004E0204606
:102090003946BDE8F08D0020054346EAE0762C4342
:1020A00037430A986305E40AA0EB08000022FD0A02
:1020B00044EA47540A3002D500200146E9E7010509
:1020C00010196941DDE9084500196941BDE8F04D85
:1020D000A2E7C1F30A52C1F3130140F2FF3341F406
:1020E00080119A4202DA00200146704740F23343E1
:1020F0009A42A2F2334202DC5242FFF7EFBBFFF7F3
:1021000004BF0000064C074D06E0E06840F0010304
:1021100094E8070098471034AC42F6D3FEF74AF82B
:10212000689901088899010870B5044600688168BB
:10213000C943C90717D1816821F00101816000F00E
:1021400093FD05460AE000BF00F08EFD401B02280B
:1021500004D920688068C043C00706D02068806822
:10216000C043C007F0D0002070BDA06A40F010004E
:10217000A062E06A40F00100E062012070BD10B58D
:102180000146406A826A12F0500F05D0006A026B65
:10219000BDE8104008461047816A41F40071816231
:1021A00001688968C1F3424107290CD1017B51B90B
:1021B000816A21F480718162816AC90403D4816AD1
:1021C00041F00101816200F067F910BD10B5406A6D
:1021D000816A41F040018162C16A41F00401C1623B
:1021E00000F05CF910BD10B5406A00F056F910BD62
:1021F000F8B500260446009600688168C943C907FF
:102200002DD0816841F001018160164816490068AF
:10221000B0FBF1F000E0401E00900028FBD100F080
:1022200023FD054616E000BF00F01EFD401B0228FE
:1022300010D920688068C043C0070BD0A06A40F066
:102240001000A062E06A40F00100E06284F82460BF
:102250000120F8BD20688068C043C007E4D1002099
:10226000F8BD00002000002040420F00FEE7000003
:10227000014800F0E1BA0000AC0A0020014800F07B
:10228000DBBA0000E00B0020014800F0D5BA0000E6
:102290009C0B002030B590F840500124AC40C56B39
:1022A0006C60046863604368102B036803D0996016
:1022B0000068C26030BD9A600068C16030BD704780
:1022C00072B6FEE7F8B500250446009590F82400A4
:1022D00001280BD0012084F824002046FFF724FFBA
:1022E0002046FFF785FF060002D050E00220F8BD2F
:1022F000A06A20F4885040F00200A062022000F0A2
:1023000017FF25490968B1FBF0F0400000E0401ECE
:1023100000900028FBD12068816841F008018160AD
:1023200000F0A2FC074608E000F09EFCC01B0A2853
:1023300003D920688068000715D4206880680007EA
:10234000F2D42068816841F00401816000F08CFCC7
:10235000074612E000F088FCC01B0A280DD920684F
:102360008068400709D5A06A20F0020040F0100004
:10237000A06284F824500120F8BD206880684007DE
:10238000E8D4A06A20F0020040F00100A06284F8C6
:1023900024503046F8BD000020000020F8B500248D
:1023A000009490F824202546012A12D0012280F8BA
:1023B00024204A681F23072A0DD20668776B521E15
:1023C00002EB820293409F430B6893401F43776365
:1023D00019E00220F8BD06680D2A0AD2376BD21F19
:1023E00002EB820293409F430B6893401F43376385
:1023F00009E0F76A0D3A02EB820293409F430B68B3
:1024000093401F43F7620A68072306680A2A0AD323
:10241000F7680A3A02EB420293409F438B6893406D
:102420001F43F76008E0376902EB420293409F4385
:102430008B6893401F4337610A68102A01D0112A24
:1024400020D1124B02689A4217D193681B0219D40B
:10245000936843F4000393600968102912D10C4972
:102460000C4A0968B1FBF2F101EB8101490000E07F
:10247000491E00910029FBD104E0816A41F020014E
:102480008162012480F824502046F8BD00240140D8
:102490002000002040420F00704770477047000046
:1024A0002DE9F0414FF0000704003D467ED0A06AC0
:1024B000002628B9E66284F82460204600F07EF801
:1024C0002046FFF731FEA16AC90600D420B1A06AF8
:1024D00040F01000A06269E0A16A21F4885141F047
:1024E0000201A1626268E169237B0A4347EA430172
:1024F0000A43A1684FF48077B94209D0012907D077
:102500005FF0000194F814C0BCF1010F02D00AE0A2
:102510003946F7E7F3B1A36A43F02003A362E36A05
:1025200043F00103E3622368D3F804C02CF4694C40
:102530004CEA010CC3F804C021688B68DFF870C056
:1025400003EA0C0313438B60A168B9420BD0012945
:1025500009D00CE0DFF85CC0A3690CEB43330B43FC
:1025600043F40061DFE7218A0D05A5F58015216898
:10257000CB6A23F470032B43CB62216889680E4B2E
:102580001940914208D1E662A16A21F0020141F0AE
:102590000101A162BDE8F081A06A20F0020040F0D4
:1025A0001000A062E06A40F00100E0620120F1E763
:1025B000FDF7E1FF00E0FFFFFE0E1FFF70B586B0E4
:1025C00000260546009601960296039600681A4971
:1025D00088422ED11949886940F400708861886961
:1025E00000F400700490886940F0040088618869F4
:1025F000694600F004000490032000900190104808
:1026000000F03CFA104C0F48C4E900068020C4E9F1
:10261000026040002061800060612020A061000213
:10262000E061204600F0B2F908B1FFF749FE2C62E4
:10263000656206B070BD0000002401400010024039
:102640000008014008000240AC0A00202DE9F047D4
:10265000894604463B4900683B4F0E1D9046884220
:1026600001D0B84207D1306810F4702F03D0012593
:102670002846BDE8F08794F8240001280CD00120FA
:1026800084F824002046FFF7B3FD05004FF000005A
:1026900004D084F82400EBE70220EAE7A16A40F6C0
:1026A0000162914341F48071A1622168B94218D15D
:1026B000326812F4702F14D0A16A41F48011A16223
:1026C0003168490505D5A16A21F4005141F48051D2
:1026D000A162A16AC9040AD5E16A21F00601E1629A
:1026E00006E0A26A22F48012A2624968E9E7E06289
:1026F00084F82400216A15488862216A1448C86257
:10270000216A1448086321686FF00200086020689D
:10271000816841F480718160216843464A464C31AA
:10272000206A00F061F920688168C1F342410729FD
:10273000816803D041F48011816099E741F4A001E0
:10274000FAE7000000240140002801407F21000832
:10275000E7210008CD21000810B590F821100022D3
:10276000022905D00421816380F82020012010BDBA
:1027700001680B6823F00E030B6001680B6823F0FF
:1027800001030B6090F84030C46B012101FA03F3A0
:10279000636080F8211080F82020104610BD0000F2
:1027A00010B590F821100024022903D00421816380
:1027B00001243DE001680A6822F00E020A60016807
:1027C0000A6822F001020A601A4A0168914201D1A6
:1027D000012121E0174A1432914201D110211BE05E
:1027E000144A2832914201D1891515E0114A3C3230
:1027F000914201D189140FE00E4A5032914202D128
:102800004FF4803108E00B4A6432914202D14FF418
:10281000801101E04FF08071064A083A51600121B1
:1028200080F82110002180F82010416B01B1884709
:10283000204610BD080002402DE9F05FC16B0C6816
:1028400001680B68D0F840C0042202FA0CF2494D2E
:10285000DFF824A1494E4A4FDFF828B1DFF828E11C
:1028600022422CD05A072AD50A68920603D40A6855
:1028700022F004020A600168A94201D1042219E091
:10288000514501D1402215E0B14202D14FF480629E
:1028900010E0B94202D14FF480420BE0594502D119
:1028A0004FF4802206E0714502D14FF4800201E02E
:1028B0004FF080622F4908394A60C16A3BE04FF00F
:1028C000020808FA0CF818EA040F4FF000094FF05C
:1028D000010235D05FEA837832D50B689B0605D4B8
:1028E0000B6823F00A030B6080F821200168A942DD
:1028F00001D1022219E0514501D1202215E0B14257
:1029000002D14FF4007210E0B94202D14FF40052EC
:102910000BE0594502D14FF4003206E0714502D177
:102920004FF4001201E04FF00072124908394A607A
:1029300080F82090816A00291AD0BDE8F05F08472E
:10294000082505FA0CF5254212D01B0710D50B6897
:1029500023F00E030B6090F84010C36B02FA01F1F4
:102960005960826380F8212080F82090016BE2E7B3
:10297000BDE8F09F080002401C0002403000024009
:1029800044000240580002406C00024030B528B3B9
:1029900008C8134914221944B1FBF2F18900C1633C
:1029A00010498163022141771A6843F6F0718A4326
:1029B000D0E900142143D0E902452C4321430469A6
:1029C0002143446921438469214311431960002153
:1029D0004163012242770177084630BD012030BDB6
:1029E000F8FFFDBF0000024070B5044690F82000DB
:1029F000002501280CD0012084F8200094F82160E3
:102A00000020012E06D084F820000225284670BD43
:102A1000022070BD022684F82160A0632068066849
:102A200026F0010606602046FFF734FCE06A002825
:102A30002068016802D041F00E0106E021F0040197
:102A400001602068016841F00A01016020680168A6
:102A500041F001010160D9E770B5044600F004F9C6
:102A60000546601C02D004480078044400F0FCF8DD
:102A7000401BA042FAD370BD140000202DE9F84F8E
:102A8000DFF8B8910024A9F1040B23460F2709F1C0
:102A9000040AABF1040EC9E00125A5402A40AA4270
:102AA0007DD1674ED1F804C0ACEB0608B44532D0F6
:102AB00014DCBCF1030F3AD009DCBCF1000F2AD0C2
:102AC000BCF1010F1CD0BCF1020F31D11DE0BCF1F3
:102AD000110F17D0BCF1120F2AD119E0B8F5881FD9
:102AE00019D006DCB8F5803F15D0B8F5801F1FD18E
:102AF00011E0B8F5001F0ED0B8F5041F18D10AE098
:102B0000CB6815E0CB681B1D12E0CB6808330FE0E3
:102B1000CB680C330CE08B682BB1012B4FF0080312
:102B200003D0456104E0042302E0056100E00023D6
:102B3000FF2A01D8064601E000F104064FEA8405A9
:102B400001D9A5F12005D6F8008007FA05FC28EA8E
:102B50000C0803FA05F548EA0508C6F800804D6838
:102B6000ED0062D5374DAE6946F00106AE61AD6944
:102B700024F0030605F001050095334D06EB050C26
:102B8000DCF80850A607360F07FA06F825EA08050C
:102B9000DFF8B880404503D14FF0000817E044E06B
:102BA000DFF8AC80404502D14FF001080FE0DFF8BC
:102BB000A480404502D14FF0020808E0DFF8988079
:102BC000404502D14FF0030801E04FF0040808FA35
:102BD00006F848EA0508CCF808804D68D9F8006086
:102BE000ED024D4601D5164300E096432E604D6838
:102BF000DAF80060AD02554601D5164300E0964371
:102C00002E604D68DBF80060AD035D4601D51643CC
:102C100000E096432E604D68DEF80060ED037546D7
:102C200001D5164300E096432E60641C0D682A46C9
:102C3000E5407FF431AFBDE8F88F000008040140A3
:102C40000000111000100240000001400008014087
:102C5000000C014000100140001401400AB1016164
:102C600070470904FBE700000148806870470000D6
:102C70001400002070B5040025D094F83D00002514
:102C800020B984F83C50204600F050F9242084F804
:102C90003D002068016821F00101016020680168A1
:102CA00041F4004101602068016821F400410160A5
:102CB00000F0BCFB4D4A6168914201D84C4900E0EC
:102CC0004C49884201D2012070BD4B492368B0FBBA
:102CD000F1F15E6826F03F060E435E606368934242
:102CE00006D94FF4967359434FF47A73B1FBF3F15D
:102CF0002368491C1E6A26F03F0631431962616849
:102D0000914210D84900401EB0FBF1F2521CC2F3B0
:102D10000B02042A01D2042022E0B0FBF1F0401C97
:102D2000C0F30B001CE0A268F2B301EBC10303EB9C
:102D30000116431EB3FBF6F35B1C43F480431B05F3
:102D400049D092B301EBC10202EB0111401EB0FB6E
:102D5000F1F0401CC0F30B0040F4804040F4004010
:102D60002168CA694CF6FF739A431043C861D4E9DD
:102D7000071001432068026822F0C002114301607D
:102D8000D4E9030101432068826848F2FF339A4383
:102D900011438160D4E9050108432168CA6822F023
:102DA000FF021043C86001E00EE016E020680168F1
:102DB00041F0010101602564202084F83D00256375
:102DC00084F83E50002070BD01EB4106431EB3FB6A
:102DD000F6F35B1CB3E70120C2E701EB4101401EA3
:102DE000B0FBF1F0401CC0F30B00B7E7A086010078
:102DF00080841E0000093D0040420F002DE9FF4F76
:102E000083B09A46DDE9119793460446DDF8408089
:102E1000FFF72AFF054694F83D0020287FD11923AB
:102E2000012240492046009501F032FA002876D16F
:102E300094F83C00012872D0012084F83C002068FE
:102E40000168C90703D1016841F0010101602068F0
:102E5000016821F400610160212084F83D004020D8
:102E600084F83E0000262664C4F82480A4F82A9042
:102E7000608D20852C48E062CDE9007553465A46A6
:102E80002046049901F084F970B930E02A463946A9
:102E9000204601F0A3FA58B1206C042804D1206820
:102EA000016841F400710160012007B0BDE8F08FB6
:102EB000606A216800780861606A401C6062218D48
:102EC000491E89B22185628D521E6285226853692E
:102ED000DB435B070BD469B100781061606A401C6A
:102EE0006062208D401E2085608D401E6085208D93
:102EF0000028CBD12A463946204601F09DF900280A
:102F0000CAD154F83D0B016841F4007101602020E2
:102F100004F81E09E67766770020C6E7FFE702207F
:102F2000C3E70000020010000000FFFF10B586B0EC
:102F30000021009101910291039100681349884298
:102F400022D1134CA06940F00800A061A069694635
:102F500000F0080004904FF440700090122001909F
:102F6000032003900B48FFF789FD0B48416841F0AF
:102F7000E06141F002014160E06940F40010E0616D
:102F8000E06900F40010049006B010BD0054004049
:102F900000100240000C014000000140024881681E
:102FA000027811448160704714000020074810B572
:102FB000016841F010010160032000F0A7F80F2024
:102FC00000F006F800F050F8002010BD002002408C
:102FD00030B505461F4887B0C16941F00401C161A1
:102FE000C06906A900F00400009001A800F0FEF9F5
:102FF0000498B0B100F01AFA40001749174AB0FB24
:10300000F1F11748491E0260416040F2E7320021A9
:10301000C0E903218160816100F0D2FC040003D08B
:1030200015E000F003FAE8E70D4800F033FD040076
:103030000DD11E2000F03CF8102D07D200222946A9
:103040001E2000F043F80748056000E0012407B0A7
:10305000204630BD0010024040420F0000080040F2
:10306000FC0C0020180000200F4808B5816941F0D1
:1030700001018161816901F001010091C16941F0A3
:103080008051C161C069002200F0805000900F2182
:10309000901E00F01BF80548416821F0E06141F006
:1030A0000071416008BD00000010024000000140B6
:1030B000002809DB00F01F02012191404009800037
:1030C00000F1E020C0F8001170470000F0B40E4B92
:1030D0001B680C46C3F30223C3F10705042D00D976
:1030E0000425191D072901D2002300E0DB1E01265B
:1030F00006FA05F1491E214099409E40761E164071
:103100003143F0BC01F0B6BE0CED00E0064900F022
:10311000070208684FF6FF03184040EA0220034AFE
:1031200010430860704700000CED00E00000FA0555
:1031300010B501460020234C012922D0022939D0A4
:1031400010291DD161682268D20119D51E48C1F32A
:103150008342C903805C0AD561681B4AC1F34041C0
:10316000921E515C194AB2FBF1F1484301E0184943
:1031700048436168490203D440000321B0FBF1F0E9
:1031800010BD226AC2F30121012903D1920701D5A2
:10319000C80310BD022905D1626A920702D549F61B
:1031A000404010BD0329FCD121688903F9D54FF2B5
:1031B000244010BD00F04AF96168C1F38131491C17
:1031C0004900DBE700100240C85B000800127A00EB
:1031D00000093D002DE9F84305460078354CC0074D
:1031E00054D0E0690026C00008D4E06940F0805067
:1031F000E061E069012600F0805000902E480168EF
:10320000C90512D40168804641F480710160FFF75E
:103210002BFD074605E000BFFFF726FDC01B642815
:1032200023D8D8F80000C005F6D5206A10F4407005
:1032300021D0A98801F4407181421CD0206A1F4925
:10324000012220F440700A6000220A602062C00758
:1032500011D0FFF709FD074641F2883808E000BFAA
:10326000FFF702FDC11B414502D90320BDE8F883E9
:10327000206A8007F4D5206A696820F4407008430A
:1032800020621EB1E06920F08050E061287880075C
:1032900005D56068A96820F440400843606028783C
:1032A000C00605D56068E96820F4800008436060C6
:1032B0000020DBE700100240007000404004424262
:1032C0002DE9F0470F46050061D0434E306800F00D
:1032D0000700B84209D2306820F007003843306058
:1032E000306800F00700B84251D128683B4C810794
:1032F00012D5400703D5606840F4E060606028782C
:10330000000703D5606840F4605060606068A96899
:1033100020F0F000084360602878C00728D0686873
:10332000012810D02168022810D0890700292EDA40
:10333000616821F0030101436160FFF795FC80465D
:1033400041F288390DE021688903EFE78901EDE753
:10335000FFF78AFCA0EB0801494502D90320BDE82C
:10336000F0876068696800F00C00B0EB810FEFD166
:10337000306800F00700B8420BD9306820F0070031
:1033800038433060306800F00700B84201D00120B7
:10339000E5E72878400705D56068E96820F4E06033
:1033A000084360602878000706D56068296920F422
:1033B000605040EAC100606000F058F86168084A57
:1033C000C1F30311515CC840064908600648006813
:1033D000FFF7FEFD0020C2E700200240001002407F
:1033E000D85B000820000020180000200F22026097
:1033F0000C4A536803F003034360536803F0F0037F
:103400008360536803F4E063C36052684FF4E06381
:1034100003EAD20202610448006800F00700086075
:103420007047000000100240002002400448054997
:1034300000684968044AC1F30221515CC8407047E2
:103440002000002000100240E85B00080448054905
:1034500000684968044AC1F3C221515CC840704702
:103460002000002000100240E85B00080E4A51686E
:103470000E4801F00C03042B11D0082B0FD10C487F
:10348000C1F38343C903C05C0AD55168084AC1F33C
:103490004041921E515C054A5043B0FBF1F0704729
:1034A00004494843704700000010024000127A00AF
:1034B000B65B000800093D002DE9F84F040070D00C
:1034C0002078C04DC00749D06868C0F3810001284A
:1034D00007D06868C0F38100022809D16868C0037A
:1034E00006D52868800339D560680028E7D035E024
:1034F0006068B0F5803F0BD010B1B0F5A02F11D0AF
:10350000286820F480302860286820F4802002E0B9
:10351000286840F480302860606890B1FFF7A4FB11
:1035200006460AE0286840F480202860F0E700BFE3
:10353000FFF79AFB801B642873D828688003F7D5AF
:103540000CE0FFF791FB064605E000BFFFF78CFBA0
:10355000801B6428F0D828688003F7D420789A4E1E
:1035600080074FF001094FF0000839D5686810F066
:103570000C0F07D06868C0F38100022809D1686881
:10358000C00306D42868800714D52069012808D113
:1035900010E02069B0B1C6F80090FFF765FB074660
:1035A00005E00AE1FFF760FBC01B0228C4D82868C9
:1035B0008007F7D52868616920F0F80040EAC1006B
:1035C00028600DE0C6F80080FFF74EFB074604E0D8
:1035D000FFF74AFBC01B022823D828688007F7D4CE
:1035E000207800072CD57948A169D9B1C0F800909E
:1035F000FFF73AFB074604E0FFF736FBC01B022843
:103600000FD8686A8007F7D571484FF4FA510068FF
:10361000B0FBF1F0009000BF0098411E0091FAD27B
:103620000EE080E0C0F80080FFF71EFB074604E0D4
:10363000FFF71AFBC01B022875D8686A8007F7D409
:103640002078400760D5E8690027C00008D4E86901
:1036500040F08050E861E869012700F08050009058
:103660005C480168C90513D40168834641F4807140
:103670000160FFF7F9FA824606E000BFFFF7F4FAAF
:10368000A0EB0A0064284ED8DBF80000C005F5D591
:10369000E06801280AD008B1052813D0286A20F074
:1036A00001002862286A20F0040002E0286A40F045
:1036B00001002862E06841F2883B98B1FFF7D4FA34
:1036C00082460BE0286A40F004002862EEE700BF63
:1036D000FFF7CAFAA0EB0A0159455AD8286A8007B1
:1036E000F6D50CE0FFF7C0FA824605E0FFF7BCFA1A
:1036F000A0EB0A0159454CD8286A8007F6D41FB1BF
:10370000E86920F08050E861E06988B36968C1F336
:103710008101022944D00228C6F8608004D0FFF756
:10372000A3FA044638E034E0FFF79EFA074604E0C7
:10373000FFF79AFAC01B02282BD828688001F7D41B
:10374000206AB0F5803F05D16868A16820F4003098
:1037500008436860D4E908010843696821F47411DA
:1037600008436860C6F86090FFF77EFA044606E0FA
:1037700025E000BFFFF778FA001B022809D8286867
:103780008001F7D51BE000BFFFF76EFA001B02288F
:1037900002D90320BDE8F88F28688001F4D40EE038
:1037A0000128F7D06868226A00F48031914204D180
:1037B000616A00F47010884201D00120EAE700201D
:1037C000E8E700000010024000004242800442424C
:1037D000200000200070004070B5040009D0606A2D
:1037E000002540B125616561A56294F8510040B1A2
:1037F0000CE0012070BD6068B0F5827FF4D0E56117
:10380000F2E784F85050204600F040F8022084F897
:1038100051002068016821F040010160A0882189E1
:1038200000F4827001F404410843A18901F40061AD
:103830000843217C01F002010843217D01F00101D0
:103840000843218B01F400710843217F01F0380106
:10385000084394F8201001F080010843218D01F401
:103860000051084321680860A069042101EA104062
:10387000216848602068C16921F40061C161656503
:10388000012084F85100002070BD0000F0B585B023
:103890000024064600940194029403940068284989
:1038A00088424BD12748816941F480518161816907
:1038B00001F480510491816941F0040181618069C2
:1038C000214D00F004000490A020009002200190FF
:1038D0000320039069462846FFF7D0F84020CDE941
:1038E0000004694628460294FFF7C8F8184D1748A7
:1038F000802701C5102091C5000245F810496C6170
:10390000C5E906401248FFF741F808B1FEF7D8FCB8
:10391000B5646E620E4D0D4844351438C5E9000497
:10392000C5E902472C616C61AC612846EC61FFF788
:103930002DF808B1FEF7C4FCF5646E6205B0F0BD69
:1039400000300140001002400008014030000240F9
:103950009C0B00207047704770B590F83C20012AFE
:1039600026D0012480F83C40022280F83D200368E4
:103970005A689D6822F070060A6832435A600D4BFF
:1039800002689A4208D0B2F1804F05D00A4B9A42A1
:1039900002D00A4B9A4204D1496825F080031943AA
:1039A000916080F83D40002180F83C10084670BDD1
:1039B000022070BD002C01400004004000080040BF
:1039C00010B5040003D094F83D0010B107E00120C9
:1039D00010BD002084F83C00204600F01FF80220B3
:1039E00084F83D00211D206801F080F8012084F852
:1039F000460084F83E0084F83F0084F8400084F8D4
:103A0000410084F8420084F8430084F8440084F8BC
:103A1000450084F83D00002010BD000008B5006896
:103A20000649884208D10648C16941F00201C161D6
:103A3000C06900F00200009008BD000000040040D2
:103A40000010024090F83D10012901D0012070477C
:103A5000022180F83D1000680B49884208D0B0F17F
:103A6000804F05D00949884202D00949884204D1D3
:103A7000816801F00701062903D0016841F00101C6
:103A80000160002070470000002C0140000400404D
:103A90000008004090F83D10012901D00120704736
:103AA000022180F83D100168CA6842F00102CA6034
:103AB00000680B49884208D0B0F1804F05D0094911
:103AC000884202D00849884204D1816801F0070188
:103AD000062903D0016841F0010101600020704710
:103AE000002C0140000400400008004070B504466E
:103AF00090F83C000025012817D0012684F83C608E
:103B0000022084F83D002068826822F0770222F4C7
:103B10007F4282600868502838D00DDC20284FD0C2
:103B200005DC90B3102811D14AE0022070BD302886
:103B300046D040280AD13BE060282FD070280DD015
:103B4000B0F5805F03D0B0F5005F12D0012584F896
:103B50003D60002084F83C00284670BDCB68D1E968
:103B60000121206800F0FEFF2068816841F07701A4
:103B700009E0CB68D1E90121206800F0F3FF20685B
:103B8000816841F480418160E1E719E0CA684968D1
:103B9000206800F0F9FF5021206806E0CA684968F3
:103BA000206801F002F86021206800F0E5FFCEE710
:103BB000CA684968206800F0E7FF40212068F4E700
:103BC000226801461046F0E770472DE9F0410446AF
:103BD0000068C66805694FF00007A90713D5B1074B
:103BE00011D5F91E016101202077206880698007C6
:103BF000204602D0FFF7E8FF04E000F07EF8204600
:103C000000F07CF82777680716D5700714D521686F
:103C10006FF004000861022020772068806910F4AA
:103C2000407F204602D0FFF7CFFF04E000F065F8A8
:103C3000204600F063F82777280715D5300713D5FD
:103C400021686FF008000861042020772068C069AF
:103C50008007204602D0FFF7B7FF04E000F04DF8E0
:103C6000204600F04BF82777E80616D5F00614D565
:103C700021686FF010000861082020772068C06973
:103C800010F4407F204602D0FFF79EFF04E000F0D2
:103C900034F8204600F032F82777E80708D0F0071C
:103CA00006D021686FF001000861204600F028F876
:103CB000280608D5300606D521686FF08000086117
:103CC0002046FFF747FE680608D5700606D521682E
:103CD0006FF040000861204600F01CF8A8060AD5E5
:103CE000B00608D521686FF0200008612046BDE8C5
:103CF000F041FFF730BEBDE8F0817047704700002B
:103D000000680349884201D1FFF748B970470000B5
:103D1000000800407047704770470000F8B5016820
:103D200004460868CA684B6910F00F0F4FF0000591
:103D300059D003F0010602F49077374365D0C107EC
:103D400005D0D10503D5616C41F0010161644107E3
:103D500005D5D90703D0616C41F002016164810788
:103D600005D5D90703D0616C41F0040161640107F6
:103D700007D502F02001314303D0616C41F0080106
:103D80006164616C00293AD0800604D5900602D5A2
:103D9000204600F04BFF20684069616CC0F3801042
:103DA000090700D460B3204600F019FF206840697D
:103DB000400621D52068143050E8001F21F0400152
:103DC00040E80012002AF5D1E06BA8B16D494163CB
:103DD000E06BFEF7E5FC002811D0E06B416B01B011
:103DE000BDE8F040084783060FD593060DD5204661
:103DF000BDE8F84000F01ABF2046FFF78DFFF8BD80
:103E00002046FFF789FF6564F8BD266B2023012E4D
:103E10007CD1C6067AD5D60678D508684868009061
:103E200048694FF00206400640D5E16B08684068DB
:103E30000004000CE8D0A28D8242E5D9E0858869B3
:103E400020282DD020680C3050E8001F21F480710C
:103E500040E80012002AF5D12068143050E8001F15
:103E600021F0010140E80012002AF5D12068143049
:103E700050E8001F21F0400140E80012002AF5D16F
:103E800084F84230256320680C3050E8001F21F090
:103E9000100140E80012002AF5D1E06BFEF75CFC4F
:103EA0006663A08DE18D401A81B22AE0A08DE18D7C
:103EB000401A81B2E08D0028A6D00029A4D0226843
:103EC0000C3252E8000F20F4907042E80007002FF7
:103ED000F5D12068143050E8002F22F0010240E8AC
:103EE0000027002FF5D184F84230256320680C307C
:103EF00050E8002F22F0100240E80023002BF5D1FB
:103F000066632046FFF707FFF8BDFFE705062BD5E0
:103F1000150629D594F841002128F5D1A068B0F5FF
:103F2000805F01D12069B0B1206A411C2162216803
:103F300000784860E08C401E0004000CE084E3D16F
:103F40002068C16821F08001C1602068C16841F02B
:103F50004001C160D8E7206A0088C0F308004860CB
:103F6000206A801C2062E5E74006CDD55006CBD5FF
:103F7000CA68204622F04002CA6084F8413000F04E
:103F8000EEF8C1E7CF4B000870B5040004D094F8F8
:103F90004100002510B106E0012070BD84F84050BA
:103FA000204600F023F8242084F841002068C168EE
:103FB00021F40051C160204600F09AFE206801699A
:103FC00021F4904101612068416921F02A01416199
:103FD0002068C16841F40051C1606564202084F804
:103FE000410084F842006563002070BD70B586B062
:103FF0000024009401940294039403682B482A4EF1
:10400000022103220515B34229D1836943F4804379
:104010008361836903F480430493836943F0040359
:1040200083618069224E00F0040004900802CDE90B
:104030000001039269463046FEF720FDCDE90054A9
:10404000694630460294FEF719FD0022072125201B
:10405000FFF73CF82520FFF72BF806B070BD154E92
:10406000B342FAD1C36943F48023C361C36903F443
:1040700080230493836943F0080383618069CDE959
:10408000005100F00800CDE903200B4D6946284699
:10409000FEF7F4FCE814CDE90004694628460294D2
:1040A000FEF7ECFCD9E700000038014000100240A8
:1040B0000008014000480040000C014070472DE915
:1040C000F843044690F84100984616460D462028CD
:1040D00002D00220BDE8F88385B17EB10020606483
:1040E000212084F84100FEF7BFFDA6848146E684C6
:1040F000A0682027B0F5805F02D003E00120E9E747
:10410000206910B12E4600250EE000260CE080212B
:10411000204600F049FEA8B9C6B116F8010B216887
:104120004860E08C401EE084E08C4B464FF000027B
:10413000CDF800800028EAD14FF04001204600F081
:1041400033FE40B184F841700320C3E735F8020B19
:10415000C0F30800E3E784F841700020BAE7704735
:10416000FEE701684A69D24352050FD46FF48062BA
:104170004A61002140F8301F202242738173026996
:1041800042F0040202610173012070470020704771
:104190002DE9F843044600680D46DDE908970168FB
:1041A0009846164641F4807101604B4600224FF05C
:1041B00001112046009700F06BF848B120680068B4
:1041C000C00502D54FF4007020640320BDE8F883D9
:1041D000216805F0FE0008613B464A461549204625
:1041E00000F09EF888B920684169806900903A46DD
:1041F0004946204600F0F2F848B1206C042804D16A
:104200002068016841F4007101600120DEE7F5B229
:10421000B8F1010F09D02168300A08613A464946D1
:10422000204600F0DBF80028E7D120680561002077
:10423000CCE700000200010070B516460D460446AA
:104240001EE02046FFF78DFF08B1012070BD681CFD
:1042500016D0FEF709FD801BA84200D885B920685A
:104260004069C04340070BD5002044F8300F20219F
:104270006173A073216941F0200121612073E4E79B
:1042800020684069C0434007DBD4002070BD0000B7
:104290002DE9F047984617460D460446C1F30746F8
:1042A000DDF820902AE000BFB8F1FF3F26D0FEF7EE
:1042B000DBFCA0EB0901414502D8B8F1000F1DD18C
:1042C0002068012E16D0806925EA00000004000C49
:1042D00012D00020B84211D1002044F8300F202124
:1042E0006173A073216941F02001216120730120D5
:1042F000BDE8F0874069E7E70120EBE72068012E81
:104300000AD0806925EA00000004000C06D00020D5
:10431000B842C9D00020EBE74069F3E70120F7E796
:104320002DE9F047984616460D4604464FF0000921
:104330004FF0200AC1F3074723E020684069C043DB
:10434000400515D42068016841F4007101602168BE
:104350006FF480604861C4F8309084F83DA084F820
:104360003E90216C41F00401216484F83C9021E0EE
:10437000701C06D0FEF778FCA0EB0800B04203D812
:1043800016B1012F1FD021E02068012F15D08069C0
:1043900025EA00000004000C18D000BF44F8309F4C
:1043A00084F80DA084F80E90216941F0200121616C
:1043B00084F80C900120BDE8F087406925EA0000F0
:1043C0000004000CEAD12068406901E0206880699F
:1043D00025EA00000004000CAFD1ECE770B51646EA
:1043E0000D4604461EE02046FFF7BBFE08B1012043
:1043F00070BD681C16D0FEF737FC801BA84200D8A1
:1044000085B920684069C04300060BD5002044F8F8
:10441000300F20216173A073216941F020012161D7
:104420002073E4E720684069C0430006DBD4002025
:1044300070BD00003EB50024164800940194144954
:104440000294016089158160047304750225056179
:10445000C9024460C161FEF723F808B1FDF730FFDF
:10446000009401240620CDE9014069460948FDF782
:1044700095FF08B1FDF724FF69460648CDE90045E0
:10448000FDF78CFF002801D0FDF71AFF3EBD0000AC
:10449000002401407C0A0020114808B5416941F020
:1044A000010141614069002200F0010000900521F6
:1044B0000B20FEF70BFE0B20FEF7FAFD0022062173
:1044C0000C20FEF703FE0C20FEF7F2FD0022062171
:1044D0000D20FEF7FBFDBDE808400D20FEF7E8BD0E
:1044E0000010024030B585B000241C4800940194AF
:1044F00002940394816941F010018161816901F0A6
:1045000010010491816941F020018161816901F00C
:1045100020010491816941F004018161816901F008
:1045200004010491816941F00801816180690C4DA9
:1045300000F008000490012210212846FEF78EFBAF
:10454000102000900120CDE901040220039069466B
:104550002846FEF793FA05B030BD00000010024077
:10456000000801400D4810B50B4901600C4941603D
:1045700000214FF480428160C0E9031241618161F2
:10458000C1610162FEF776FB002803D0BDE8104050
:10459000FDF796BE10BD000000540040F00A002058
:1045A000A0860100104810B50E4901604FF48271D9
:1045B000416000218160C1604FF400720161C0E977
:1045C00005123822C0E90721416281620A21C162D5
:1045D000FFF702F9002803D0BDE81040FDF770BED8
:1045E00010BD000000300140440B002010B586B023
:1045F00000241848009401940294039404941449EC
:10460000059401604721C0E9011440F2E731C0E997
:10461000031480218161FFF7D3F908B1FDF750FE43
:104620004FF48050009069460A48FFF75FFA08B1DE
:10463000FDF746FE2020CDE9040404A90548FFF754
:104640008BF9002801D0FDF73BFE06B010BD00003D
:1046500000040040240C00200C4810B50A490160F9
:104660004FF416514160002181600C22C160C0E905
:1046700004128161C161FFF787FC002803D0BDE807
:104680001040FDF71DBE10BD003801406C0C00202D
:104690000C4810B50A4901604FF4165141600021E1
:1046A00081600C22C160C0E904128161C161FFF721
:1046B0006BFC002803D0BDE81040FDF701BE10BD23
:1046C00000480040B40C0020FEE7FEE710B50021D2
:1046D000074C0A46002004EBC1131A54401CC0B218
:1046E0008028FAD3491CC9B20829F3D310BD0000B1
:1046F000440D0020F0B50B4424E0044685181DE06D
:104700007F2C19D8002917DB3F2915DCCE1701EBC8
:1047100056764FEAE60C0D4F26F0070607EBCC174E
:104720002744A1EB060E97F800C0012606FA0EF604
:104730002CEA060C87F800C0641C24B2A542DFDC1A
:10474000491C09B28B42D8DCF0BD0000440D0020AA
:1047500010B5C820FEF780F9AE2000F057F9D5203B
:1047600000F054F9802000F051F9A82000F04EF933
:104770003F2000F04BF9D32000F048F9002000F072
:1047800045F9402000F042F9A12000F03FF9C8208F
:1047900000F03CF9DA2000F039F9122000F036F987
:1047A000812000F033F9CF2000F030F9D92000F05B
:1047B0002DF9F12000F02AF9DB2000F027F9302054
:1047C00000F024F9A42000F021F9A62000F01EF941
:1047D0008D2000F01BF9142000F018F9AF2000F034
:1047E00015F9FFF773FFBDE8104000F0FBB810B5F6
:1047F0000C4640F0B00000F009F9102040EA141017
:1048000000F004F904F00F00BDE8104000F0FEB81D
:1048100008B5082B0DD0062B0AD10A4B02EB420239
:1048200003EB4202C03A00920823062200F00EF881
:1048300008BD054B03EB0212A2F500721023009293
:104840000822F3E7E0610008F05B00082DE9F04F73
:104850001F4616460D4682460024FFF74BFF7F1E7B
:10486000F81707EB50700121DFF898B001EBE00773
:1048700043E000203DE000BF0AEB00037F2B36D869
:10488000E91705EB5171CA1021F00701691A002DD3
:1048900003DA521E083112B209B202EB0409B9F16F
:1048A000070F0ED8099A04FB06F802440BEBC91E49
:1048B00018F802201EF803C08A404CEA020C0EF8D9
:1048C00003C009F10102072A11D80BEBC91202EB50
:1048D0000308099A04FB06FC024498F880301CF88F
:1048E0000220C1F10801CA40134388F88030401CFF
:1048F000C0B2B042C0D3641CE4B2A742B9DCBDE888
:10490000F08F0000440D00202DE9FF4F002583B0FB
:104910009B4690462C46AA46DFF8C09056E010060B
:104920008DF8042005F101050DD40398ADB22044A3
:104930008DF805A000B25B460499FFF769FF04EB10
:104940000B0084B242E0A8B218F80010002941D050
:10495000401C8DF8051085B28DF806A0002606E0F3
:10496000384601A9FCF7DCFF68B1761CB6B2C6EB8D
:10497000C60000EB800101EB0900074618A1FCF717
:10498000CFFF0028ECD1BBF1080F03D0BBF1060F1D
:104990001CD111E0C6EBC60000EB800101EB090061
:1049A000C01C009003981023204400B21A460499BA
:1049B000FFF74CFF103408E003980623204400B2B0
:1049C0003F220499FFF724FFA41DA4B218F8052084
:1049D000002AA4D107B0BDE8F08F00001A640008D7
:1049E0000000000070B5084D002400212046FFF7AC
:1049F000FEFE05EBC410802100F01AF8641CE4B23E
:104A0000082CF2D370BD0000440D002001B584B025
:104A10000121642204A88DE807000B4600227821BA
:104A20000248FEF7EBF905B000BD0000F00A0020D7
:104A30000EB54FF47A728DE80700012340227821E9
:104A40000148FEF7DBF90EBDF00A002010B54FF06B
:104A5000E020006901F03CF8012803D0BDE81040D7
:104A600001F020B810BD30B593B028216846FCF79E
:104A70004CFF14210AA8FCF748FF002501200F95E0
:104A800010951195010412958DE8230004904FF4C0
:104A9000E010CDE90810022407946846FEF70CFDEB
:104AA00008B172B6FEE70AA90F2081E831004FF481
:104AB0008060CDE90D0502210AA8FEF701FC08B1CE
:104AC00072B6FEE74FF4004011900F940FA8FEF766
:104AD00081FB002801D072B6FEE713B030BD7047ED
:104AE0000148FFF772B80000FC0C0020F0B5026826
:104AF000194B1A4C1A4D4FF08047984205D0B842D6
:104B000003D0A04201D0A84203D122F070064A6827
:104B10003243984205D0B84203D0A04201D0A84207
:104B200003D122F44074CA6822434C6922F0800207
:104B3000224302608A68C2620A688262984201D196
:104B400009690163012141610169C90703D0016954
:104B500021F001010161F0BD002C01400004004082
:104B60000008004010B5846842EA032224F47F4420
:104B70000A432243826010BD826822F070020A4319
:104B800042F007018160704710B5036A046A24F09F
:104B900001040462846924F0F00444EA021423F05E
:104BA0000A020A438461026210BD10B5036A046AF6
:104BB00024F010040462846923F0A00324F47044F8
:104BC00044EA023243EA01118261016210BD10B56C
:104BD000406A0021C185C184FFF79EF810BD0168BD
:104BE0000C3151E8002F22F4907241E80023002B91
:104BF000F5D10168143151E8002F22F0010241E89B
:104C00000023002BF5D1016B012909D101680C317A
:104C100051E8002F22F0100241E80023002BF5D1CB
:104C2000202180F8421000210163704708B590F8F8
:104C30004210222901D0022008BD82684FF480531F
:104C40009A4201D1016921B1816A9A421BD04AB1CD
:104C50000AE00268816A5268C2F308020A80816A27
:104C6000891C08E0026972B10268526802F07F0292
:104C70000A70816A491C8162C18D491E0904090CB0
:104C8000C18503D01BE002685268F1E70168CA6879
:104C900022F02002CA600168CA6822F48072CA60E9
:104CA00001684A6922F001024A61202180F842101D
:104CB00000214163026B012A03D0FFF7FFF90020B6
:104CC00008BD016301680C3151E8002F22F0100289
:104CD00041E80023002BF5D101680A68D20602D50D
:104CE0000A6849680091818DFFF715F8E7E7000031
:104CF00070B5044600680169E26821F4405111432F
:104D000001612169A0680843616908432168CA6894
:104D100041F20C639A430243CA6020684169A26968
:104D200021F44071114341611E492068884202D13B
:104D3000FEF78CFB01E0FEF779FB00EBC00101EB15
:104D40000012606864218000B2FBF0F3B3FBF1F362
:104D50006FF018067343B2FBF0F5B2FBF0F605EB0B
:104D60008305322303EB0515B5FBF1F5B6FBF1F630
:104D700005F0F00505EB0615B2FBF0F6B2FBF0F01E
:104D8000B0FBF1F06FF01802504306EB800003EB2C
:104D90000010B0FBF1F0216800F00F00284488609B
:104DA00070BD0000003801402DE9F84398461746D1
:104DB0000D460446089E24E0701C22D0FDF754FFE7
:104DC000A0EB0800B0421AD8CEB12068C1684907EC
:104DD00017D5802D15D0402D13D00168C943090780
:104DE0000FD401680025406800902046FFF7F7FEC9
:104DF0000820606484F840500120BDE8F883032057
:104E0000FBE72068006835EA000004D00020B842C3
:104E1000D2D00020F1E70120F9E700000148FEF7B9
:104E20007DBF00006C0C0020FEE700000FB4054BB6
:104E300010B503A9044A029800F004F910BC5DF80B
:104E400014FB00007D570008100000200FB4084B31
:104E500010B504A902AA039800F0F4F8044602A9C8
:104E6000002000F086FC204610BC5DF814FB00001A
:104E7000735700080907090E002804DB00F1E02041
:104E800080F80014704700F00F0000F1E02080F877
:104E9000141D704702E008C8121F08C1002AFAD189
:104EA00070477047002001E001C1121F002AFBD1AA
:104EB0007047000001490860704700006000002052
:104EC0002DE9FF5F82B00021DDE90430020DDDF83D
:104ED00040B0034318D044F61050A2F2FF324243D0
:104EE0001514119801281FD0A5EB0B00401C5FEA98
:104EF000000A4FF000064E4FDFF83891B04650469A
:104F000015D5CAF1000413E0119801244AA3012821
:104F100001D16FEA0B010298119AC0E90031C0E992
:104F2000024206B0BDE8F09FCBF10000DFE7044687
:104F30000021404A491842EB0450CDE9001012E02C
:104F4000E00707D032463B4640464946FCF771FE33
:104F50008046894632463B4610461946FCF769FEB4
:104F600006460F466410002CEAD1DDE90401DDE9B4
:104F70000023BAF1000F06DAFCF75BFE42464B460F
:104F8000FCF757FE05E0FCF7C6FE42464B46FCF731
:104F9000C2FE04460E460022284BFCF74DFF03D804
:104FA0004FF0FF30014607E00022254B20463146F6
:104FB000FCF798FDFDF78DF8102409E0002C0ADBC2
:104FC0000A220023FCF770FF039B30321A55641E3F
:104FD00050EA0102F2D1641C039AC4F11103144493
:104FE000119A012A03D0012208430DD10AE0084397
:104FF00004D000204FF0110B119072E7A3EB0B05CA
:105000006D1E0DE05B4504DD4FF0000205F101056A
:1050100004E003DA4FF00002A5F10105002AECD00C
:1050200002981199C0E90231C0E9004579E7000012
:10503000000014400000F03F300000000000F0438A
:105040000000E03F2DE9FF4F95B09B46894606469C
:1050500000250FE2252877D100242746F84A0121B0
:10506000059400E0044316F8013F203B01FA03F0E9
:105070001042F7D130782A2811D06FF02F03307802
:10508000A0F13002092A16D8059A44F0020402EB76
:10509000820203EB42021044761C0590EFE759F8B8
:1050A000042B0592002A03DA504244F40054059080
:1050B00044F00204761C30782E2816D116F8010F21
:1050C00044F004042A280DD06FF02F023078A0F1AC
:1050D0003003092B09D807EB870302EB4303C718FA
:1050E000761CF3E759F8047B761C30786C280FD0D7
:1050F00006DC4C2817D068280DD06A2814D104E0AB
:10510000742810D07A280FD10DE044F400140AE07E
:1051100044F4801401E044F440147278824202D1D5
:1051200004F58014761C761C307866280BD013DCCE
:10513000582877D009DC002875D04528F6D04628B5
:10514000F4D047281AD19DE118E0632835D06428AF
:1051500079D0652812D195E1702873D008DC6728D2
:10516000F1D069286FD06E280DD06F2806D1B5E038
:1051700073282CD0752875D0782874D05A46179982
:1051800090476D1C75E1C4F30250022809D0032832
:105190000DD0D9F8001004280DD00D6009F10409D4
:1051A00067E1D9F80010EA17C1E90052F6E7D9F82B
:1051B00000100D80F2E70D70F0E719F8041B8DF870
:1051C000001000208DF80100EA46012003E059F8A4
:1051D00004AB4FF0FF3061074FF0000102D40DE047
:1051E00008F101018846B9420FDA8045F8DB1AF868
:1051F00008100029F4D108E008F101018846814235
:10520000FADB1AF808100029F6D105985B46A0EBE6
:10521000080721463846179A00F094FA284400EB14
:10522000080507E04DE029E10DE01AF8010B5A46A8
:1052300017999047B8F10108F7D25B4621463846E6
:10524000179A13E142E00A220092C4F302524FF08F
:10525000000A022A08D059F804CB032A4FEAEC715D
:105260000AD00DE029E02AE009F1070121F0070248
:10527000F2E802C1914609E00FFA8CFC4FEAEC71AA
:10528000042A03D14FFA8CFC4FEAEC71002907DAAB
:105290000A460021DCF1000C61EB02012D2202E044
:1052A000220504D52B228DF80420012203E0E20719
:1052B00001D02022F7E7904659E00A2102E01022AF
:1052C0000DE010214FF0000A00910BE010224FF08A
:1052D000000A44F004040827009203E008224FF07B
:1052E000000A0092C4F30252022A05D059F804CBF6
:1052F0000021032A08D009E009F1070121F0070283
:10530000F2E802C1914605E01FFA8CFC042A01D1A3
:105310000CF0FF0C4FF00008220728D5702806D0AB
:10532000009B83F0100353EA0A0305D00EE04022ED
:105330008DF80420012208E05CEA010206D0302248
:105340008DF804208DF8050002229046009B83F022
:10535000080353EA0A030AD15CEA010201D1620799
:1053600005D530228DF804204FF001087F1E582803
:1053700004D034A003900EA802900DE036A0F9E707
:1053800053466046009AFCF78FFD84460398825C82
:105390000298401E029002705CEA0100F0D102986F
:1053A00006A9081A00F1200A600702D524F4803407
:1053B00000E00127574502DDA7EB0A0000E00020CE
:1053C00000EB0A01009005984144401A0590E00363
:1053D00006D45B462146179A059800F0B3F90544B8
:1053E000002706E001A85A46C05D179990476D1C3A
:1053F0007F1C4745F6DBE0030CD55B462146179A38
:10540000059800F09FF9054404E030205A461799AA
:1054100090476D1C0099481E00900029F5DC08E0BB
:10542000029802995A460078491C029117999047B0
:105430006D1CBAF10001AAF1010AF1DC65E100007E
:10544000092801003031323334353637383961625A
:10545000636465660000000030313233343536371E
:1054600038394142434445460000000000F058F9F5
:105470000544761C307800287FF4ECAD19B028463E
:10548000BDE8F08F620700D4062709F1070222F079
:10549000070CFCE80223E14603F000485FEA080C31
:1054A00002D00FF2702C0DE05FEA045C02D50FF21F
:1054B000682C07E05FEAC47C02D00FF2602C01E0A8
:1054C000AFF2700C4FF0FF3823F00043CDF850C01E
:1054D00065280CD006DC452809D046281DD0472871
:1054E0003DD13DE0662818D067287ED138E0002104
:1054F000112F01DB112000E0781CCDE9000106A985
:105500000EA8FFF7DDFCDDE90F010E9A03910021E3
:10551000009207F1010A04914DE04FF0004000971E
:10552000CDE9011006A90EA8FFF7CAFCDDE90F02BC
:1055300003920E9B11990022DDF80CA000930492B7
:1055400011B9791C00EB010AB7EB0A0004D4C0F1D1
:10555000FF3007F1010A0490AAEB0700019044E034
:10556000012F00DA01270021112F01DD112000E0B9
:105570003846CDE9000106A90EA8FFF7A1FCDDE938
:105580000F010E9A0391002104910092BA4621075F
:105590000CD40399514500DA8A46BAF1010F05DDB2
:1055A000009AAAF10101515C302908D0B84202DA10
:1055B00010F1040F06DA0121CDE9011015E0AAF17E
:1055C0000101E9E7002805DC049901440491AAEBF4
:1055D000000102E0411C514500DD8A460499401A51
:1055E000401C01904FF000400290200704D4019825
:1055F000504501DBCDF8048000208DF84F00029863
:105600000DF14F07B0F1004F25D02B200E900298DE
:105610004FF0020800280CDA404202902D200E9034
:1056200007E00A210298FCF729FC3031029007F8C4
:10563000011DB8F10001A8F10108F2DC0298002870
:10564000EFD1791E0E980870307800F0200040F0FD
:10565000450007F8020D12A8C01B00F107081498B6
:10566000007800B1012000EB0A01019801EBE07124
:1056700005984144401A401E0590E00306D45B465D
:105680002146179A059800F05DF8054414980078B3
:1056900018B15A46179990476D1CE00324D55B4614
:1056A0002146179A059800F04DF805441CE004982F
:1056B000002807DBDDE90301884203DD0098405C38
:1056C000179901E0179930205A469047049805F140
:1056D0000105401C04900198401E019004D12E2029
:1056E0005A46179990476D1CBAF10001AAF1010AB8
:1056F000DDDC05E017F8010B5A46179990476D1C41
:10570000B8F10001A8F10108F4DC5B462146179AC4
:105710000598ABE62D0000002B00000020000000E3
:105720002DE9F041044600251E461746880404D49E
:1057300005E039462020B0476D1C641EF9D5284687
:10574000BDE8F0812DE9F041044600251E46904653
:10575000C80301D5302700E02027880404D505E0E0
:1057600041463846B0476D1C641EF9D52846BDE851
:10577000F0810A68531C0B601070704713B54FF02E
:10578000FF33012269460248FEF799FC00981CBDD0
:10579000B40C002086B0FDF709FCFFF764F9FEF7B2
:1057A000A1FEFEF779FEFEF745FEFEF7DBFEFEF7F3
:1057B000F9FEFEF751FFFEF76BFFFEF717FFFEF74E
:1057C000C7FFFEF783FF0021082355A20846FFF715
:1057D0009BF8FFF707F94FF480715548FAF794FEEC
:1057E0005448FCF76FFD022253495248FCF72EFF44
:1057F0005248FEF727F952A0FFF718FB4FF47A70D2
:10580000FDF72AF900254C4E2C464FF4FA773088E4
:1058100005440220FDF720F9641CBC42F7DBB5FB10
:10582000F7F7394650A0FFF701FBDFF85C91424CD7
:10583000B0464FF0640A09F50066A41EB8F80000EF
:10584000C01B01D5414200E00146E26801EB810145
:1058500002EB8202120102EB8102B2FBFAF1E1607B
:10586000FCF7C8FA218849F82100491C88B2208039
:10587000FF2847D90023454A43492D48FAF723FE1C
:10588000802243494148FAF7F9FC00205FF0010506
:1058900056F82510FCF752F86D1C802DF8DB00211E
:1058A0008B4600910125491EFCF710F9CDF8040044
:1058B00056F825100098FCF741F80090DDE900103B
:1058C000FCF7D2FA02D81FFA85FB02E06D1C802D8E
:1058D000EEDB5846FCF797FA2E49FCF787F8A060F4
:1058E000FCF796FA02460B462BA102A8FFF7AEFA88
:1058F000082302AA20210020FFF706F8FFF772F81C
:1059000000202080A068FCF783FA02460B4626A000
:10591000E168FFF78BFA0520FDF79EF88EE700009F
:10592000454D4720262046465420496E69740000A4
:10593000640A00207C0A002002000020240C0020C1
:1059400053797374656D20537461727421204361BF
:105950006C6962726174696E6720626173656C69FB
:105960006E652E2E2E0D0A0043616C6962726174A1
:10597000696F6E204F4B2120426173656C696E65C3
:105980003A20256C640D0A006400002064040020A5
:10599000640800200000483F4D463A2025352E314E
:1059A0006620487A00000000256C752C252E326692
:1059B0000A0000000648416B096829B1416BC968BB
:1059C000C9684968816270474FF0FF31FAE700000B
:1059D0002400002070B50546FCF7EFFA044620F0DD
:1059E0000040C0F1FF40C00F08D025F00040C0F1DA
:1059F000FF40C00F04BF0120FFF75CFA204670BDD6
:105A0000D0E9013201699A60D0E901235A604A68FD
:105A1000824201D182684A60002202610868401E09
:105A200008600868704742684A6093688B609368B2
:105A30005960916008610168491C0160704700006D
:105A4000164810B5016B11B10121C16110BD0021D3
:105A5000C1610169124A01E0B9B1491E01EB81033C
:105A600052F82330002BF7D001EB810302EB8302C5
:105A700002F1080453685B685360A34201D15B687C
:105A80005360DA680260016110BD502080F3118814
:105A9000BFF34F8FBFF36F8FFEE70000240000209D
:105AA0004411002010B5502080F31188BFF34F8FB0
:105AB000BFF36F8F00F01AF818B104494FF080500F
:105AC0000860002080F3118810BD000004ED00E0A4
:105AD0000548416919B1006B18B1002070470120D9
